{
  "address": "0x1608f99CE4B63404Dc0C8684Ea20fa7BfE08cd09",
  "abi": [
    {
      "inputs": [],
      "stateMutability": "nonpayable",
      "type": "constructor"
    },
    {
      "anonymous": false,
      "inputs": [
        {
          "indexed": true,
          "internalType": "address",
          "name": "owner",
          "type": "address"
        },
        {
          "indexed": true,
          "internalType": "address",
          "name": "approved",
          "type": "address"
        },
        {
          "indexed": true,
          "internalType": "uint256",
          "name": "tokenId",
          "type": "uint256"
        }
      ],
      "name": "Approval",
      "type": "event"
    },
    {
      "anonymous": false,
      "inputs": [
        {
          "indexed": true,
          "internalType": "address",
          "name": "owner",
          "type": "address"
        },
        {
          "indexed": true,
          "internalType": "address",
          "name": "operator",
          "type": "address"
        },
        {
          "indexed": false,
          "internalType": "bool",
          "name": "approved",
          "type": "bool"
        }
      ],
      "name": "ApprovalForAll",
      "type": "event"
    },
    {
      "anonymous": false,
      "inputs": [
        {
          "indexed": true,
          "internalType": "uint256",
          "name": "tokenId",
          "type": "uint256"
        },
        {
          "indexed": false,
          "internalType": "string",
          "name": "tokenURI",
          "type": "string"
        }
      ],
      "name": "CreatedSVGNFT",
      "type": "event"
    },
    {
      "anonymous": false,
      "inputs": [
        {
          "indexed": true,
          "internalType": "address",
          "name": "from",
          "type": "address"
        },
        {
          "indexed": true,
          "internalType": "address",
          "name": "to",
          "type": "address"
        },
        {
          "indexed": true,
          "internalType": "uint256",
          "name": "tokenId",
          "type": "uint256"
        }
      ],
      "name": "Transfer",
      "type": "event"
    },
    {
      "inputs": [
        {
          "internalType": "address",
          "name": "to",
          "type": "address"
        },
        {
          "internalType": "uint256",
          "name": "tokenId",
          "type": "uint256"
        }
      ],
      "name": "approve",
      "outputs": [],
      "stateMutability": "nonpayable",
      "type": "function"
    },
    {
      "inputs": [
        {
          "internalType": "address",
          "name": "owner",
          "type": "address"
        }
      ],
      "name": "balanceOf",
      "outputs": [
        {
          "internalType": "uint256",
          "name": "",
          "type": "uint256"
        }
      ],
      "stateMutability": "view",
      "type": "function"
    },
    {
      "inputs": [
        {
          "internalType": "string",
          "name": "_svg",
          "type": "string"
        }
      ],
      "name": "create",
      "outputs": [],
      "stateMutability": "nonpayable",
      "type": "function"
    },
    {
      "inputs": [
        {
          "internalType": "string",
          "name": "_imageURI",
          "type": "string"
        }
      ],
      "name": "formatTokenURI",
      "outputs": [
        {
          "internalType": "string",
          "name": "",
          "type": "string"
        }
      ],
      "stateMutability": "pure",
      "type": "function"
    },
    {
      "inputs": [
        {
          "internalType": "uint256",
          "name": "tokenId",
          "type": "uint256"
        }
      ],
      "name": "getApproved",
      "outputs": [
        {
          "internalType": "address",
          "name": "",
          "type": "address"
        }
      ],
      "stateMutability": "view",
      "type": "function"
    },
    {
      "inputs": [
        {
          "internalType": "address",
          "name": "owner",
          "type": "address"
        },
        {
          "internalType": "address",
          "name": "operator",
          "type": "address"
        }
      ],
      "name": "isApprovedForAll",
      "outputs": [
        {
          "internalType": "bool",
          "name": "",
          "type": "bool"
        }
      ],
      "stateMutability": "view",
      "type": "function"
    },
    {
      "inputs": [],
      "name": "name",
      "outputs": [
        {
          "internalType": "string",
          "name": "",
          "type": "string"
        }
      ],
      "stateMutability": "view",
      "type": "function"
    },
    {
      "inputs": [
        {
          "internalType": "uint256",
          "name": "tokenId",
          "type": "uint256"
        }
      ],
      "name": "ownerOf",
      "outputs": [
        {
          "internalType": "address",
          "name": "",
          "type": "address"
        }
      ],
      "stateMutability": "view",
      "type": "function"
    },
    {
      "inputs": [
        {
          "internalType": "address",
          "name": "from",
          "type": "address"
        },
        {
          "internalType": "address",
          "name": "to",
          "type": "address"
        },
        {
          "internalType": "uint256",
          "name": "tokenId",
          "type": "uint256"
        }
      ],
      "name": "safeTransferFrom",
      "outputs": [],
      "stateMutability": "nonpayable",
      "type": "function"
    },
    {
      "inputs": [
        {
          "internalType": "address",
          "name": "from",
          "type": "address"
        },
        {
          "internalType": "address",
          "name": "to",
          "type": "address"
        },
        {
          "internalType": "uint256",
          "name": "tokenId",
          "type": "uint256"
        },
        {
          "internalType": "bytes",
          "name": "_data",
          "type": "bytes"
        }
      ],
      "name": "safeTransferFrom",
      "outputs": [],
      "stateMutability": "nonpayable",
      "type": "function"
    },
    {
      "inputs": [
        {
          "internalType": "address",
          "name": "operator",
          "type": "address"
        },
        {
          "internalType": "bool",
          "name": "approved",
          "type": "bool"
        }
      ],
      "name": "setApprovalForAll",
      "outputs": [],
      "stateMutability": "nonpayable",
      "type": "function"
    },
    {
      "inputs": [
        {
          "internalType": "bytes4",
          "name": "interfaceId",
          "type": "bytes4"
        }
      ],
      "name": "supportsInterface",
      "outputs": [
        {
          "internalType": "bool",
          "name": "",
          "type": "bool"
        }
      ],
      "stateMutability": "view",
      "type": "function"
    },
    {
      "inputs": [
        {
          "internalType": "string",
          "name": "_svg",
          "type": "string"
        }
      ],
      "name": "svgToImageURI",
      "outputs": [
        {
          "internalType": "string",
          "name": "",
          "type": "string"
        }
      ],
      "stateMutability": "pure",
      "type": "function"
    },
    {
      "inputs": [],
      "name": "symbol",
      "outputs": [
        {
          "internalType": "string",
          "name": "",
          "type": "string"
        }
      ],
      "stateMutability": "view",
      "type": "function"
    },
    {
      "inputs": [],
      "name": "tokenCounter",
      "outputs": [
        {
          "internalType": "uint256",
          "name": "",
          "type": "uint256"
        }
      ],
      "stateMutability": "view",
      "type": "function"
    },
    {
      "inputs": [
        {
          "internalType": "uint256",
          "name": "tokenId",
          "type": "uint256"
        }
      ],
      "name": "tokenURI",
      "outputs": [
        {
          "internalType": "string",
          "name": "",
          "type": "string"
        }
      ],
      "stateMutability": "view",
      "type": "function"
    },
    {
      "inputs": [
        {
          "internalType": "address",
          "name": "from",
          "type": "address"
        },
        {
          "internalType": "address",
          "name": "to",
          "type": "address"
        },
        {
          "internalType": "uint256",
          "name": "tokenId",
          "type": "uint256"
        }
      ],
      "name": "transferFrom",
      "outputs": [],
      "stateMutability": "nonpayable",
      "type": "function"
    }
  ],
  "transactionHash": "0x1b484de6fa9d20da4d83e39fedd8ef3688e3756d715485e4ee8be0a224ee0444",
  "args": [],
  "numDeployments": 2,
  "solcInputHash": "c2920ae02d4f3dbedb75eba846c9adb5",
  "bytecode": "0x60806040523480156200001157600080fd5b506040518060400160405280600781526020017f535647204e4654000000000000000000000000000000000000000000000000008152506040518060400160405280600681526020017f7376674e46540000000000000000000000000000000000000000000000000000815250816000908051906020019062000096929190620000c0565b508060019080519060200190620000af929190620000c0565b5050506000600781905550620001d4565b828054620000ce906200019f565b90600052602060002090601f016020900481019282620000f257600085556200013e565b82601f106200010d57805160ff19168380011785556200013e565b828001600101855582156200013e579182015b828111156200013d57825182559160200191906001019062000120565b5b5090506200014d919062000151565b5090565b5b808211156200016c57600081600090555060010162000152565b5090565b7f4e487b7100000000000000000000000000000000000000000000000000000000600052602260045260246000fd5b60006002820490506001821680620001b857607f821691505b602082108103620001ce57620001cd62000170565b5b50919050565b6134ae80620001e46000396000f3fe608060405234801561001057600080fd5b506004361061010b5760003560e01c806370a08231116100a2578063b6a46b3b11610071578063b6a46b3b146102dc578063b88d4fde146102f8578063c87b56dd14610314578063d082e38114610344578063e985e9c5146103625761010b565b806370a082311461024257806371aee1931461027257806395d89b41146102a2578063a22cb465146102c05761010b565b806323b872dd116100de57806323b872dd146101aa57806330d871c6146101c657806342842e0e146101f65780636352211e146102125761010b565b806301ffc9a71461011057806306fdde0314610140578063081812fc1461015e578063095ea7b31461018e575b600080fd5b61012a60048036038101906101259190611f90565b610392565b6040516101379190611fd8565b60405180910390f35b610148610474565b604051610155919061208c565b60405180910390f35b610178600480360381019061017391906120e4565b610506565b6040516101859190612152565b60405180910390f35b6101a860048036038101906101a39190612199565b61058b565b005b6101c460048036038101906101bf91906121d9565b6106a2565b005b6101e060048036038101906101db9190612361565b610702565b6040516101ed919061208c565b60405180910390f35b610210600480360381019061020b91906121d9565b61079b565b005b61022c600480360381019061022791906120e4565b6107bb565b6040516102399190612152565b60405180910390f35b61025c600480360381019061025791906123aa565b61086c565b60405161026991906123e6565b60405180910390f35b61028c60048036038101906102879190612361565b610923565b604051610299919061208c565b60405180910390f35b6102aa610979565b6040516102b7919061208c565b60405180910390f35b6102da60048036038101906102d5919061242d565b610a0b565b005b6102f660048036038101906102f19190612361565b610a21565b005b610312600480360381019061030d919061250e565b610c23565b005b61032e600480360381019061032991906120e4565b610c85565b60405161033b919061208c565b60405180910390f35b61034c610dd6565b60405161035991906123e6565b60405180910390f35b61037c60048036038101906103779190612591565b610ddc565b6040516103899190611fd8565b60405180910390f35b60007f80ac58cd000000000000000000000000000000000000000000000000000000007bffffffffffffffffffffffffffffffffffffffffffffffffffffffff1916827bffffffffffffffffffffffffffffffffffffffffffffffffffffffff1916148061045d57507f5b5e139f000000000000000000000000000000000000000000000000000000007bffffffffffffffffffffffffffffffffffffffffffffffffffffffff1916827bffffffffffffffffffffffffffffffffffffffffffffffffffffffff1916145b8061046d575061046c82610e70565b5b9050919050565b60606000805461048390612600565b80601f01602080910402602001604051908101604052809291908181526020018280546104af90612600565b80156104fc5780601f106104d1576101008083540402835291602001916104fc565b820191906000526020600020905b8154815290600101906020018083116104df57829003601f168201915b5050505050905090565b600061051182610eda565b610550576040517f08c379a0000000000000000000000000000000000000000000000000000000008152600401610547906126a3565b60405180910390fd5b6004600083815260200190815260200160002060009054906101000a900473ffffffffffffffffffffffffffffffffffffffff169050919050565b6000610596826107bb565b90508073ffffffffffffffffffffffffffffffffffffffff168373ffffffffffffffffffffffffffffffffffffffff1603610606576040517f08c379a00000000000000000000000000000000000000000000000000000000081526004016105fd90612735565b60405180910390fd5b8073ffffffffffffffffffffffffffffffffffffffff16610625610f46565b73ffffffffffffffffffffffffffffffffffffffff16148061065457506106538161064e610f46565b610ddc565b5b610693576040517f08c379a000000000000000000000000000000000000000000000000000000000815260040161068a906127c7565b60405180910390fd5b61069d8383610f4e565b505050565b6106b36106ad610f46565b82611007565b6106f2576040517f08c379a00000000000000000000000000000000000000000000000000000000081526004016106e990612859565b60405180910390fd5b6106fd8383836110e5565b505050565b606060006040518060400160405280601a81526020017f646174613a696d6167652f7376672b786d6c3b6261736536342c000000000000815250905060006107688460405160200161075491906128b5565b60405160208183030381529060405261134b565b90506000828260405160200161077f9291906128cc565b6040516020818303038152906040529050809350505050919050565b6107b683838360405180602001604052806000815250610c23565b505050565b6000806002600084815260200190815260200160002060009054906101000a900473ffffffffffffffffffffffffffffffffffffffff169050600073ffffffffffffffffffffffffffffffffffffffff168173ffffffffffffffffffffffffffffffffffffffff1603610863576040517f08c379a000000000000000000000000000000000000000000000000000000000815260040161085a90612962565b60405180910390fd5b80915050919050565b60008073ffffffffffffffffffffffffffffffffffffffff168273ffffffffffffffffffffffffffffffffffffffff16036108dc576040517f08c379a00000000000000000000000000000000000000000000000000000000081526004016108d3906129f4565b60405180910390fd5b600360008373ffffffffffffffffffffffffffffffffffffffff1673ffffffffffffffffffffffffffffffffffffffff168152602001908152602001600020549050919050565b6060600061094f8360405160200161093b9190612b1e565b60405160208183030381529060405261134b565b60405160200161095f9190612ba2565b604051602081830303815290604052905080915050919050565b60606001805461098890612600565b80601f01602080910402602001604051908101604052809291908181526020018280546109b490612600565b8015610a015780601f106109d657610100808354040283529160200191610a01565b820191906000526020600020905b8154815290600101906020018083116109e457829003601f168201915b5050505050905090565b610a1d610a16610f46565b83836114c3565b5050565b610a626040518060400160405280600c81526020017f746f6b656e436f756e746572000000000000000000000000000000000000000081525060075461162f565b6000610a6d82610702565b9050610aad6040518060400160405280601181526020017f637265617465645f696d616765207572690000000000000000000000000000008152506116cb565b6000610ab882610923565b9050610af86040518060400160405280601181526020017f6372656174656420746f6b656e207572690000000000000000000000000000008152506116cb565b6007547ff5acc616aa8ecd00e5d76674d7812f9c3c3571d662c9fba4499deefa6d0be12d82604051610b2a919061208c565b60405180910390a2610b3e33600754611764565b610b7c6040518060400160405280601081526020017f6d696e746564206e657720746f6b656e000000000000000000000000000000008152506116cb565b610b8860075482611782565b610bc66040518060400160405280601181526020017f736574206e657420746f6b656e207572690000000000000000000000000000008152506116cb565b600160076000828254610bd99190612bf7565b92505081905550610c1e6040518060400160405280601781526020017f696e6372656173656420746f6b656e20636f756e7465720000000000000000008152506116cb565b505050565b610c34610c2e610f46565b83611007565b610c73576040517f08c379a0000000000000000000000000000000000000000000000000000000008152600401610c6a90612859565b60405180910390fd5b610c7f848484846117f6565b50505050565b6060610c9082610eda565b610ccf576040517f08c379a0000000000000000000000000000000000000000000000000000000008152600401610cc690612cbf565b60405180910390fd5b6000600660008481526020019081526020016000208054610cef90612600565b80601f0160208091040260200160405190810160405280929190818152602001828054610d1b90612600565b8015610d685780601f10610d3d57610100808354040283529160200191610d68565b820191906000526020600020905b815481529060010190602001808311610d4b57829003601f168201915b505050505090506000610d79611852565b90506000815103610d8e578192505050610dd1565b600082511115610dc3578082604051602001610dab9291906128cc565b60405160208183030381529060405292505050610dd1565b610dcc84611869565b925050505b919050565b60075481565b6000600560008473ffffffffffffffffffffffffffffffffffffffff1673ffffffffffffffffffffffffffffffffffffffff16815260200190815260200160002060008373ffffffffffffffffffffffffffffffffffffffff1673ffffffffffffffffffffffffffffffffffffffff16815260200190815260200160002060009054906101000a900460ff16905092915050565b60007f01ffc9a7000000000000000000000000000000000000000000000000000000007bffffffffffffffffffffffffffffffffffffffffffffffffffffffff1916827bffffffffffffffffffffffffffffffffffffffffffffffffffffffff1916149050919050565b60008073ffffffffffffffffffffffffffffffffffffffff166002600084815260200190815260200160002060009054906101000a900473ffffffffffffffffffffffffffffffffffffffff1673ffffffffffffffffffffffffffffffffffffffff1614159050919050565b600033905090565b816004600083815260200190815260200160002060006101000a81548173ffffffffffffffffffffffffffffffffffffffff021916908373ffffffffffffffffffffffffffffffffffffffff160217905550808273ffffffffffffffffffffffffffffffffffffffff16610fc1836107bb565b73ffffffffffffffffffffffffffffffffffffffff167f8c5be1e5ebec7d5bd14f71427d1e84f3dd0314c0f7b2291e5b200ac8c7c3b92560405160405180910390a45050565b600061101282610eda565b611051576040517f08c379a000000000000000000000000000000000000000000000000000000000815260040161104890612d51565b60405180910390fd5b600061105c836107bb565b90508073ffffffffffffffffffffffffffffffffffffffff168473ffffffffffffffffffffffffffffffffffffffff1614806110cb57508373ffffffffffffffffffffffffffffffffffffffff166110b384610506565b73ffffffffffffffffffffffffffffffffffffffff16145b806110dc57506110db8185610ddc565b5b91505092915050565b8273ffffffffffffffffffffffffffffffffffffffff16611105826107bb565b73ffffffffffffffffffffffffffffffffffffffff161461115b576040517f08c379a000000000000000000000000000000000000000000000000000000000815260040161115290612de3565b60405180910390fd5b600073ffffffffffffffffffffffffffffffffffffffff168273ffffffffffffffffffffffffffffffffffffffff16036111ca576040517f08c379a00000000000000000000000000000000000000000000000000000000081526004016111c190612e75565b60405180910390fd5b6111d5838383611910565b6111e0600082610f4e565b6001600360008573ffffffffffffffffffffffffffffffffffffffff1673ffffffffffffffffffffffffffffffffffffffff16815260200190815260200160002060008282546112309190612e95565b925050819055506001600360008473ffffffffffffffffffffffffffffffffffffffff1673ffffffffffffffffffffffffffffffffffffffff16815260200190815260200160002060008282546112879190612bf7565b92505081905550816002600083815260200190815260200160002060006101000a81548173ffffffffffffffffffffffffffffffffffffffff021916908373ffffffffffffffffffffffffffffffffffffffff160217905550808273ffffffffffffffffffffffffffffffffffffffff168473ffffffffffffffffffffffffffffffffffffffff167fddf252ad1be2c89b69c2b068fc378daa952ba7f163c4a11628f55a4df523b3ef60405160405180910390a4611346838383611915565b505050565b6060600082510361136d576040518060200160405280600081525090506114be565b6000604051806060016040528060408152602001613439604091399050600060036002855161139c9190612bf7565b6113a69190612ef8565b60046113b29190612f29565b905060006020826113c39190612bf7565b67ffffffffffffffff8111156113dc576113db612236565b5b6040519080825280601f01601f19166020018201604052801561140e5781602001600182028036833780820191505090505b509050818152600183018586518101602084015b8183101561147d576003830192508251603f8160121c168501518253600182019150603f81600c1c168501518253600182019150603f8160061c168501518253600182019150603f8116850151825360018201915050611422565b60038951066001811461149757600281146114a7576114b2565b613d3d60f01b60028303526114b2565b603d60f81b60018303525b50505050508093505050505b919050565b8173ffffffffffffffffffffffffffffffffffffffff168373ffffffffffffffffffffffffffffffffffffffff1603611531576040517f08c379a000000000000000000000000000000000000000000000000000000000815260040161152890612fcf565b60405180910390fd5b80600560008573ffffffffffffffffffffffffffffffffffffffff1673ffffffffffffffffffffffffffffffffffffffff16815260200190815260200160002060008473ffffffffffffffffffffffffffffffffffffffff1673ffffffffffffffffffffffffffffffffffffffff16815260200190815260200160002060006101000a81548160ff0219169083151502179055508173ffffffffffffffffffffffffffffffffffffffff168373ffffffffffffffffffffffffffffffffffffffff167f17307eab39ab6107e8899845ad3d59bd9653f200f220920489ca2b5937696c31836040516116229190611fd8565b60405180910390a3505050565b6116c78282604051602401611645929190612fef565b6040516020818303038152906040527f9710a9d0000000000000000000000000000000000000000000000000000000007bffffffffffffffffffffffffffffffffffffffffffffffffffffffff19166020820180517bffffffffffffffffffffffffffffffffffffffffffffffffffffffff838183161783525050505061191a565b5050565b611761816040516024016116df919061208c565b6040516020818303038152906040527f41304fac000000000000000000000000000000000000000000000000000000007bffffffffffffffffffffffffffffffffffffffffffffffffffffffff19166020820180517bffffffffffffffffffffffffffffffffffffffffffffffffffffffff838183161783525050505061191a565b50565b61177e828260405180602001604052806000815250611943565b5050565b61178b82610eda565b6117ca576040517f08c379a00000000000000000000000000000000000000000000000000000000081526004016117c190613091565b60405180910390fd5b806006600084815260200190815260200160002090805190602001906117f1929190611e81565b505050565b6118018484846110e5565b61180d8484848461199e565b61184c576040517f08c379a000000000000000000000000000000000000000000000000000000000815260040161184390613123565b60405180910390fd5b50505050565b606060405180602001604052806000815250905090565b606061187482610eda565b6118b3576040517f08c379a00000000000000000000000000000000000000000000000000000000081526004016118aa906131b5565b60405180910390fd5b60006118bd611852565b905060008151116118dd5760405180602001604052806000815250611908565b806118e784611b25565b6040516020016118f89291906128cc565b6040516020818303038152906040525b915050919050565b505050565b505050565b60008151905060006a636f6e736f6c652e6c6f679050602083016000808483855afa5050505050565b61194d8383611c85565b61195a600084848461199e565b611999576040517f08c379a000000000000000000000000000000000000000000000000000000000815260040161199090613123565b60405180910390fd5b505050565b60006119bf8473ffffffffffffffffffffffffffffffffffffffff16611e5e565b15611b18578373ffffffffffffffffffffffffffffffffffffffff1663150b7a026119e8610f46565b8786866040518563ffffffff1660e01b8152600401611a0a949392919061322a565b6020604051808303816000875af1925050508015611a4657506040513d601f19601f82011682018060405250810190611a43919061328b565b60015b611ac8573d8060008114611a76576040519150601f19603f3d011682016040523d82523d6000602084013e611a7b565b606091505b506000815103611ac0576040517f08c379a0000000000000000000000000000000000000000000000000000000008152600401611ab790613123565b60405180910390fd5b805181602001fd5b63150b7a0260e01b7bffffffffffffffffffffffffffffffffffffffffffffffffffffffff1916817bffffffffffffffffffffffffffffffffffffffffffffffffffffffff191614915050611b1d565b600190505b949350505050565b606060008203611b6c576040518060400160405280600181526020017f30000000000000000000000000000000000000000000000000000000000000008152509050611c80565b600082905060005b60008214611b9e578080611b87906132b8565b915050600a82611b979190612ef8565b9150611b74565b60008167ffffffffffffffff811115611bba57611bb9612236565b5b6040519080825280601f01601f191660200182016040528015611bec5781602001600182028036833780820191505090505b5090505b60008514611c7957600182611c059190612e95565b9150600a85611c149190613300565b6030611c209190612bf7565b60f81b818381518110611c3657611c35613331565b5b60200101907effffffffffffffffffffffffffffffffffffffffffffffffffffffffffffff1916908160001a905350600a85611c729190612ef8565b9450611bf0565b8093505050505b919050565b600073ffffffffffffffffffffffffffffffffffffffff168273ffffffffffffffffffffffffffffffffffffffff1603611cf4576040517f08c379a0000000000000000000000000000000000000000000000000000000008152600401611ceb906133ac565b60405180910390fd5b611cfd81610eda565b15611d3d576040517f08c379a0000000000000000000000000000000000000000000000000000000008152600401611d3490613418565b60405180910390fd5b611d4960008383611910565b6001600360008473ffffffffffffffffffffffffffffffffffffffff1673ffffffffffffffffffffffffffffffffffffffff1681526020019081526020016000206000828254611d999190612bf7565b92505081905550816002600083815260200190815260200160002060006101000a81548173ffffffffffffffffffffffffffffffffffffffff021916908373ffffffffffffffffffffffffffffffffffffffff160217905550808273ffffffffffffffffffffffffffffffffffffffff16600073ffffffffffffffffffffffffffffffffffffffff167fddf252ad1be2c89b69c2b068fc378daa952ba7f163c4a11628f55a4df523b3ef60405160405180910390a4611e5a60008383611915565b5050565b6000808273ffffffffffffffffffffffffffffffffffffffff163b119050919050565b828054611e8d90612600565b90600052602060002090601f016020900481019282611eaf5760008555611ef6565b82601f10611ec857805160ff1916838001178555611ef6565b82800160010185558215611ef6579182015b82811115611ef5578251825591602001919060010190611eda565b5b509050611f039190611f07565b5090565b5b80821115611f20576000816000905550600101611f08565b5090565b6000604051905090565b600080fd5b600080fd5b60007fffffffff0000000000000000000000000000000000000000000000000000000082169050919050565b611f6d81611f38565b8114611f7857600080fd5b50565b600081359050611f8a81611f64565b92915050565b600060208284031215611fa657611fa5611f2e565b5b6000611fb484828501611f7b565b91505092915050565b60008115159050919050565b611fd281611fbd565b82525050565b6000602082019050611fed6000830184611fc9565b92915050565b600081519050919050565b600082825260208201905092915050565b60005b8381101561202d578082015181840152602081019050612012565b8381111561203c576000848401525b50505050565b6000601f19601f8301169050919050565b600061205e82611ff3565b6120688185611ffe565b935061207881856020860161200f565b61208181612042565b840191505092915050565b600060208201905081810360008301526120a68184612053565b905092915050565b6000819050919050565b6120c1816120ae565b81146120cc57600080fd5b50565b6000813590506120de816120b8565b92915050565b6000602082840312156120fa576120f9611f2e565b5b6000612108848285016120cf565b91505092915050565b600073ffffffffffffffffffffffffffffffffffffffff82169050919050565b600061213c82612111565b9050919050565b61214c81612131565b82525050565b60006020820190506121676000830184612143565b92915050565b61217681612131565b811461218157600080fd5b50565b6000813590506121938161216d565b92915050565b600080604083850312156121b0576121af611f2e565b5b60006121be85828601612184565b92505060206121cf858286016120cf565b9150509250929050565b6000806000606084860312156121f2576121f1611f2e565b5b600061220086828701612184565b935050602061221186828701612184565b9250506040612222868287016120cf565b9150509250925092565b600080fd5b600080fd5b7f4e487b7100000000000000000000000000000000000000000000000000000000600052604160045260246000fd5b61226e82612042565b810181811067ffffffffffffffff8211171561228d5761228c612236565b5b80604052505050565b60006122a0611f24565b90506122ac8282612265565b919050565b600067ffffffffffffffff8211156122cc576122cb612236565b5b6122d582612042565b9050602081019050919050565b82818337600083830152505050565b60006123046122ff846122b1565b612296565b9050828152602081018484840111156123205761231f612231565b5b61232b8482856122e2565b509392505050565b600082601f8301126123485761234761222c565b5b81356123588482602086016122f1565b91505092915050565b60006020828403121561237757612376611f2e565b5b600082013567ffffffffffffffff81111561239557612394611f33565b5b6123a184828501612333565b91505092915050565b6000602082840312156123c0576123bf611f2e565b5b60006123ce84828501612184565b91505092915050565b6123e0816120ae565b82525050565b60006020820190506123fb60008301846123d7565b92915050565b61240a81611fbd565b811461241557600080fd5b50565b60008135905061242781612401565b92915050565b6000806040838503121561244457612443611f2e565b5b600061245285828601612184565b925050602061246385828601612418565b9150509250929050565b600067ffffffffffffffff82111561248857612487612236565b5b61249182612042565b9050602081019050919050565b60006124b16124ac8461246d565b612296565b9050828152602081018484840111156124cd576124cc612231565b5b6124d88482856122e2565b509392505050565b600082601f8301126124f5576124f461222c565b5b813561250584826020860161249e565b91505092915050565b6000806000806080858703121561252857612527611f2e565b5b600061253687828801612184565b945050602061254787828801612184565b9350506040612558878288016120cf565b925050606085013567ffffffffffffffff81111561257957612578611f33565b5b612585878288016124e0565b91505092959194509250565b600080604083850312156125a8576125a7611f2e565b5b60006125b685828601612184565b92505060206125c785828601612184565b9150509250929050565b7f4e487b7100000000000000000000000000000000000000000000000000000000600052602260045260246000fd5b6000600282049050600182168061261857607f821691505b60208210810361262b5761262a6125d1565b5b50919050565b7f4552433732313a20617070726f76656420717565727920666f72206e6f6e657860008201527f697374656e7420746f6b656e0000000000000000000000000000000000000000602082015250565b600061268d602c83611ffe565b915061269882612631565b604082019050919050565b600060208201905081810360008301526126bc81612680565b9050919050565b7f4552433732313a20617070726f76616c20746f2063757272656e74206f776e6560008201527f7200000000000000000000000000000000000000000000000000000000000000602082015250565b600061271f602183611ffe565b915061272a826126c3565b604082019050919050565b6000602082019050818103600083015261274e81612712565b9050919050565b7f4552433732313a20617070726f76652063616c6c6572206973206e6f74206f7760008201527f6e6572206e6f7220617070726f76656420666f7220616c6c0000000000000000602082015250565b60006127b1603883611ffe565b91506127bc82612755565b604082019050919050565b600060208201905081810360008301526127e0816127a4565b9050919050565b7f4552433732313a207472616e736665722063616c6c6572206973206e6f74206f60008201527f776e6572206e6f7220617070726f766564000000000000000000000000000000602082015250565b6000612843603183611ffe565b915061284e826127e7565b604082019050919050565b6000602082019050818103600083015261287281612836565b9050919050565b600081905092915050565b600061288f82611ff3565b6128998185612879565b93506128a981856020860161200f565b80840191505092915050565b60006128c18284612884565b915081905092915050565b60006128d88285612884565b91506128e48284612884565b91508190509392505050565b7f4552433732313a206f776e657220717565727920666f72206e6f6e657869737460008201527f656e7420746f6b656e0000000000000000000000000000000000000000000000602082015250565b600061294c602983611ffe565b9150612957826128f0565b604082019050919050565b6000602082019050818103600083015261297b8161293f565b9050919050565b7f4552433732313a2062616c616e636520717565727920666f7220746865207a6560008201527f726f206164647265737300000000000000000000000000000000000000000000602082015250565b60006129de602a83611ffe565b91506129e982612982565b604082019050919050565b60006020820190508181036000830152612a0d816129d1565b9050919050565b7f7b226e616d65223a22535647204e4654222c0000000000000000000000000000815250565b7f226465736372697074696f6e223a22416e204e4654206261736564205356472160008201527f222c000000000000000000000000000000000000000000000000000000000000602082015250565b6000612a96602283612879565b9150612aa182612a3a565b602282019050919050565b7f2261747472696275746573223a22222c00000000000000000000000000000000815250565b7f22696d616765223a220000000000000000000000000000000000000000000000815250565b7f227d000000000000000000000000000000000000000000000000000000000000815250565b6000612b2982612a14565b601282019150612b3882612a89565b9150612b4382612aac565b601082019150612b5282612ad2565b600982019150612b628284612884565b9150612b6d82612af8565b60028201915081905092915050565b7f646174613a6170706c69636174696f6e2f6a736f6e3b6261736536342c000000815250565b6000612bad82612b7c565b601d82019150612bbd8284612884565b915081905092915050565b7f4e487b7100000000000000000000000000000000000000000000000000000000600052601160045260246000fd5b6000612c02826120ae565b9150612c0d836120ae565b9250827fffffffffffffffffffffffffffffffffffffffffffffffffffffffffffffffff03821115612c4257612c41612bc8565b5b828201905092915050565b7f45524337323155524953746f726167653a2055524920717565727920666f722060008201527f6e6f6e6578697374656e7420746f6b656e000000000000000000000000000000602082015250565b6000612ca9603183611ffe565b9150612cb482612c4d565b604082019050919050565b60006020820190508181036000830152612cd881612c9c565b9050919050565b7f4552433732313a206f70657261746f7220717565727920666f72206e6f6e657860008201527f697374656e7420746f6b656e0000000000000000000000000000000000000000602082015250565b6000612d3b602c83611ffe565b9150612d4682612cdf565b604082019050919050565b60006020820190508181036000830152612d6a81612d2e565b9050919050565b7f4552433732313a207472616e736665722066726f6d20696e636f72726563742060008201527f6f776e6572000000000000000000000000000000000000000000000000000000602082015250565b6000612dcd602583611ffe565b9150612dd882612d71565b604082019050919050565b60006020820190508181036000830152612dfc81612dc0565b9050919050565b7f4552433732313a207472616e7366657220746f20746865207a65726f2061646460008201527f7265737300000000000000000000000000000000000000000000000000000000602082015250565b6000612e5f602483611ffe565b9150612e6a82612e03565b604082019050919050565b60006020820190508181036000830152612e8e81612e52565b9050919050565b6000612ea0826120ae565b9150612eab836120ae565b925082821015612ebe57612ebd612bc8565b5b828203905092915050565b7f4e487b7100000000000000000000000000000000000000000000000000000000600052601260045260246000fd5b6000612f03826120ae565b9150612f0e836120ae565b925082612f1e57612f1d612ec9565b5b828204905092915050565b6000612f34826120ae565b9150612f3f836120ae565b9250817fffffffffffffffffffffffffffffffffffffffffffffffffffffffffffffffff0483118215151615612f7857612f77612bc8565b5b828202905092915050565b7f4552433732313a20617070726f766520746f2063616c6c657200000000000000600082015250565b6000612fb9601983611ffe565b9150612fc482612f83565b602082019050919050565b60006020820190508181036000830152612fe881612fac565b9050919050565b600060408201905081810360008301526130098185612053565b905061301860208301846123d7565b9392505050565b7f45524337323155524953746f726167653a2055524920736574206f66206e6f6e60008201527f6578697374656e7420746f6b656e000000000000000000000000000000000000602082015250565b600061307b602e83611ffe565b91506130868261301f565b604082019050919050565b600060208201905081810360008301526130aa8161306e565b9050919050565b7f4552433732313a207472616e7366657220746f206e6f6e20455243373231526560008201527f63656976657220696d706c656d656e7465720000000000000000000000000000602082015250565b600061310d603283611ffe565b9150613118826130b1565b604082019050919050565b6000602082019050818103600083015261313c81613100565b9050919050565b7f4552433732314d657461646174613a2055524920717565727920666f72206e6f60008201527f6e6578697374656e7420746f6b656e0000000000000000000000000000000000602082015250565b600061319f602f83611ffe565b91506131aa82613143565b604082019050919050565b600060208201905081810360008301526131ce81613192565b9050919050565b600081519050919050565b600082825260208201905092915050565b60006131fc826131d5565b61320681856131e0565b935061321681856020860161200f565b61321f81612042565b840191505092915050565b600060808201905061323f6000830187612143565b61324c6020830186612143565b61325960408301856123d7565b818103606083015261326b81846131f1565b905095945050505050565b60008151905061328581611f64565b92915050565b6000602082840312156132a1576132a0611f2e565b5b60006132af84828501613276565b91505092915050565b60006132c3826120ae565b91507fffffffffffffffffffffffffffffffffffffffffffffffffffffffffffffffff82036132f5576132f4612bc8565b5b600182019050919050565b600061330b826120ae565b9150613316836120ae565b92508261332657613325612ec9565b5b828206905092915050565b7f4e487b7100000000000000000000000000000000000000000000000000000000600052603260045260246000fd5b7f4552433732313a206d696e7420746f20746865207a65726f2061646472657373600082015250565b6000613396602083611ffe565b91506133a182613360565b602082019050919050565b600060208201905081810360008301526133c581613389565b9050919050565b7f4552433732313a20746f6b656e20616c7265616479206d696e74656400000000600082015250565b6000613402601c83611ffe565b915061340d826133cc565b602082019050919050565b60006020820190508181036000830152613431816133f5565b905091905056fe4142434445464748494a4b4c4d4e4f505152535455565758595a6162636465666768696a6b6c6d6e6f707172737475767778797a303132333435363738392b2fa2646970667358221220a5cd61ad78679eb829a88cc59e34d561c9a976718e6dcfb59e5cd0dfbfb80d3064736f6c634300080d0033",
  "devdoc": {
    "kind": "dev",
    "methods": {
      "approve(address,uint256)": {
        "details": "See {IERC721-approve}."
      },
      "balanceOf(address)": {
        "details": "See {IERC721-balanceOf}."
      },
      "getApproved(uint256)": {
        "details": "See {IERC721-getApproved}."
      },
      "isApprovedForAll(address,address)": {
        "details": "See {IERC721-isApprovedForAll}."
      },
      "name()": {
        "details": "See {IERC721Metadata-name}."
      },
      "ownerOf(uint256)": {
        "details": "See {IERC721-ownerOf}."
      },
      "safeTransferFrom(address,address,uint256)": {
        "details": "See {IERC721-safeTransferFrom}."
      },
      "safeTransferFrom(address,address,uint256,bytes)": {
        "details": "See {IERC721-safeTransferFrom}."
      },
      "setApprovalForAll(address,bool)": {
        "details": "See {IERC721-setApprovalForAll}."
      },
      "supportsInterface(bytes4)": {
        "details": "See {IERC165-supportsInterface}."
      },
      "symbol()": {
        "details": "See {IERC721Metadata-symbol}."
      },
      "tokenURI(uint256)": {
        "details": "See {IERC721Metadata-tokenURI}."
      },
      "transferFrom(address,address,uint256)": {
        "details": "See {IERC721-transferFrom}."
      }
    },
    "version": 1
  },
  "userdoc": {
    "kind": "user",
    "methods": {},
    "version": 1
  },
  "storageLayout": {
    "storage": [
      {
        "astId": 25,
        "contract": "contracts/SVGNFT.sol:SVGNFT",
        "label": "_name",
        "offset": 0,
        "slot": "0",
        "type": "t_string_storage"
      },
      {
        "astId": 27,
        "contract": "contracts/SVGNFT.sol:SVGNFT",
        "label": "_symbol",
        "offset": 0,
        "slot": "1",
        "type": "t_string_storage"
      },
      {
        "astId": 31,
        "contract": "contracts/SVGNFT.sol:SVGNFT",
        "label": "_owners",
        "offset": 0,
        "slot": "2",
        "type": "t_mapping(t_uint256,t_address)"
      },
      {
        "astId": 35,
        "contract": "contracts/SVGNFT.sol:SVGNFT",
        "label": "_balances",
        "offset": 0,
        "slot": "3",
        "type": "t_mapping(t_address,t_uint256)"
      },
      {
        "astId": 39,
        "contract": "contracts/SVGNFT.sol:SVGNFT",
        "label": "_tokenApprovals",
        "offset": 0,
        "slot": "4",
        "type": "t_mapping(t_uint256,t_address)"
      },
      {
        "astId": 45,
        "contract": "contracts/SVGNFT.sol:SVGNFT",
        "label": "_operatorApprovals",
        "offset": 0,
        "slot": "5",
        "type": "t_mapping(t_address,t_mapping(t_address,t_bool))"
      },
      {
        "astId": 1012,
        "contract": "contracts/SVGNFT.sol:SVGNFT",
        "label": "_tokenURIs",
        "offset": 0,
        "slot": "6",
        "type": "t_mapping(t_uint256,t_string_storage)"
      },
      {
        "astId": 1834,
        "contract": "contracts/SVGNFT.sol:SVGNFT",
        "label": "tokenCounter",
        "offset": 0,
        "slot": "7",
        "type": "t_uint256"
      }
    ],
    "types": {
      "t_address": {
        "encoding": "inplace",
        "label": "address",
        "numberOfBytes": "20"
      },
      "t_bool": {
        "encoding": "inplace",
        "label": "bool",
        "numberOfBytes": "1"
      },
      "t_mapping(t_address,t_bool)": {
        "encoding": "mapping",
        "key": "t_address",
        "label": "mapping(address => bool)",
        "numberOfBytes": "32",
        "value": "t_bool"
      },
      "t_mapping(t_address,t_mapping(t_address,t_bool))": {
        "encoding": "mapping",
        "key": "t_address",
        "label": "mapping(address => mapping(address => bool))",
        "numberOfBytes": "32",
        "value": "t_mapping(t_address,t_bool)"
      },
      "t_mapping(t_address,t_uint256)": {
        "encoding": "mapping",
        "key": "t_address",
        "label": "mapping(address => uint256)",
        "numberOfBytes": "32",
        "value": "t_uint256"
      },
      "t_mapping(t_uint256,t_address)": {
        "encoding": "mapping",
        "key": "t_uint256",
        "label": "mapping(uint256 => address)",
        "numberOfBytes": "32",
        "value": "t_address"
      },
      "t_mapping(t_uint256,t_string_storage)": {
        "encoding": "mapping",
        "key": "t_uint256",
        "label": "mapping(uint256 => string)",
        "numberOfBytes": "32",
        "value": "t_string_storage"
      },
      "t_string_storage": {
        "encoding": "bytes",
        "label": "string",
        "numberOfBytes": "32"
      },
      "t_uint256": {
        "encoding": "inplace",
        "label": "uint256",
        "numberOfBytes": "32"
      }
    }
  }
}