{
  "address": "0x8BE128a04974FEcBB0c625233dE30928C447493a",
  "abi": [
    {
      "inputs": [],
      "stateMutability": "nonpayable",
      "type": "constructor"
    },
    {
      "anonymous": false,
      "inputs": [
        {
          "indexed": true,
          "internalType": "address",
          "name": "owner",
          "type": "address"
        },
        {
          "indexed": true,
          "internalType": "address",
          "name": "approved",
          "type": "address"
        },
        {
          "indexed": true,
          "internalType": "uint256",
          "name": "tokenId",
          "type": "uint256"
        }
      ],
      "name": "Approval",
      "type": "event"
    },
    {
      "anonymous": false,
      "inputs": [
        {
          "indexed": true,
          "internalType": "address",
          "name": "owner",
          "type": "address"
        },
        {
          "indexed": true,
          "internalType": "address",
          "name": "operator",
          "type": "address"
        },
        {
          "indexed": false,
          "internalType": "bool",
          "name": "approved",
          "type": "bool"
        }
      ],
      "name": "ApprovalForAll",
      "type": "event"
    },
    {
      "anonymous": false,
      "inputs": [
        {
          "indexed": true,
          "internalType": "uint256",
          "name": "tokenId",
          "type": "uint256"
        },
        {
          "indexed": false,
          "internalType": "string",
          "name": "tokenURI",
          "type": "string"
        }
      ],
      "name": "CreatedSVGNFT",
      "type": "event"
    },
    {
      "anonymous": false,
      "inputs": [
        {
          "indexed": true,
          "internalType": "address",
          "name": "from",
          "type": "address"
        },
        {
          "indexed": true,
          "internalType": "address",
          "name": "to",
          "type": "address"
        },
        {
          "indexed": true,
          "internalType": "uint256",
          "name": "tokenId",
          "type": "uint256"
        }
      ],
      "name": "Transfer",
      "type": "event"
    },
    {
      "inputs": [
        {
          "internalType": "address",
          "name": "to",
          "type": "address"
        },
        {
          "internalType": "uint256",
          "name": "tokenId",
          "type": "uint256"
        }
      ],
      "name": "approve",
      "outputs": [],
      "stateMutability": "nonpayable",
      "type": "function"
    },
    {
      "inputs": [
        {
          "internalType": "address",
          "name": "owner",
          "type": "address"
        }
      ],
      "name": "balanceOf",
      "outputs": [
        {
          "internalType": "uint256",
          "name": "",
          "type": "uint256"
        }
      ],
      "stateMutability": "view",
      "type": "function"
    },
    {
      "inputs": [
        {
          "internalType": "string",
          "name": "_svg",
          "type": "string"
        }
      ],
      "name": "create",
      "outputs": [],
      "stateMutability": "nonpayable",
      "type": "function"
    },
    {
      "inputs": [
        {
          "internalType": "string",
          "name": "_imageURI",
          "type": "string"
        }
      ],
      "name": "formatTokenURI",
      "outputs": [
        {
          "internalType": "string",
          "name": "",
          "type": "string"
        }
      ],
      "stateMutability": "pure",
      "type": "function"
    },
    {
      "inputs": [
        {
          "internalType": "uint256",
          "name": "tokenId",
          "type": "uint256"
        }
      ],
      "name": "getApproved",
      "outputs": [
        {
          "internalType": "address",
          "name": "",
          "type": "address"
        }
      ],
      "stateMutability": "view",
      "type": "function"
    },
    {
      "inputs": [
        {
          "internalType": "address",
          "name": "owner",
          "type": "address"
        },
        {
          "internalType": "address",
          "name": "operator",
          "type": "address"
        }
      ],
      "name": "isApprovedForAll",
      "outputs": [
        {
          "internalType": "bool",
          "name": "",
          "type": "bool"
        }
      ],
      "stateMutability": "view",
      "type": "function"
    },
    {
      "inputs": [],
      "name": "name",
      "outputs": [
        {
          "internalType": "string",
          "name": "",
          "type": "string"
        }
      ],
      "stateMutability": "view",
      "type": "function"
    },
    {
      "inputs": [
        {
          "internalType": "uint256",
          "name": "tokenId",
          "type": "uint256"
        }
      ],
      "name": "ownerOf",
      "outputs": [
        {
          "internalType": "address",
          "name": "",
          "type": "address"
        }
      ],
      "stateMutability": "view",
      "type": "function"
    },
    {
      "inputs": [
        {
          "internalType": "address",
          "name": "from",
          "type": "address"
        },
        {
          "internalType": "address",
          "name": "to",
          "type": "address"
        },
        {
          "internalType": "uint256",
          "name": "tokenId",
          "type": "uint256"
        }
      ],
      "name": "safeTransferFrom",
      "outputs": [],
      "stateMutability": "nonpayable",
      "type": "function"
    },
    {
      "inputs": [
        {
          "internalType": "address",
          "name": "from",
          "type": "address"
        },
        {
          "internalType": "address",
          "name": "to",
          "type": "address"
        },
        {
          "internalType": "uint256",
          "name": "tokenId",
          "type": "uint256"
        },
        {
          "internalType": "bytes",
          "name": "_data",
          "type": "bytes"
        }
      ],
      "name": "safeTransferFrom",
      "outputs": [],
      "stateMutability": "nonpayable",
      "type": "function"
    },
    {
      "inputs": [
        {
          "internalType": "address",
          "name": "operator",
          "type": "address"
        },
        {
          "internalType": "bool",
          "name": "approved",
          "type": "bool"
        }
      ],
      "name": "setApprovalForAll",
      "outputs": [],
      "stateMutability": "nonpayable",
      "type": "function"
    },
    {
      "inputs": [
        {
          "internalType": "bytes4",
          "name": "interfaceId",
          "type": "bytes4"
        }
      ],
      "name": "supportsInterface",
      "outputs": [
        {
          "internalType": "bool",
          "name": "",
          "type": "bool"
        }
      ],
      "stateMutability": "view",
      "type": "function"
    },
    {
      "inputs": [
        {
          "internalType": "string",
          "name": "_svg",
          "type": "string"
        }
      ],
      "name": "svgToImageURI",
      "outputs": [
        {
          "internalType": "string",
          "name": "",
          "type": "string"
        }
      ],
      "stateMutability": "pure",
      "type": "function"
    },
    {
      "inputs": [],
      "name": "symbol",
      "outputs": [
        {
          "internalType": "string",
          "name": "",
          "type": "string"
        }
      ],
      "stateMutability": "view",
      "type": "function"
    },
    {
      "inputs": [],
      "name": "tokenCounter",
      "outputs": [
        {
          "internalType": "uint256",
          "name": "",
          "type": "uint256"
        }
      ],
      "stateMutability": "view",
      "type": "function"
    },
    {
      "inputs": [
        {
          "internalType": "uint256",
          "name": "tokenId",
          "type": "uint256"
        }
      ],
      "name": "tokenURI",
      "outputs": [
        {
          "internalType": "string",
          "name": "",
          "type": "string"
        }
      ],
      "stateMutability": "view",
      "type": "function"
    },
    {
      "inputs": [
        {
          "internalType": "address",
          "name": "from",
          "type": "address"
        },
        {
          "internalType": "address",
          "name": "to",
          "type": "address"
        },
        {
          "internalType": "uint256",
          "name": "tokenId",
          "type": "uint256"
        }
      ],
      "name": "transferFrom",
      "outputs": [],
      "stateMutability": "nonpayable",
      "type": "function"
    }
  ],
  "transactionHash": "0x7cc25bd043388f22e374a2d3fa90d9a9546f954159893ffab5868bb159beb068",
  "args": [],
  "numDeployments": 1,
  "solcInputHash": "4592e24c72145199bbb3b5ebb03da3b8",
  "bytecode": "0x60806040523480156200001157600080fd5b506040518060400160405280600781526020017f535647204e4654000000000000000000000000000000000000000000000000008152506040518060400160405280600681526020017f7376674e46540000000000000000000000000000000000000000000000000000815250816000908051906020019062000096929190620000c0565b508060019080519060200190620000af929190620000c0565b5050506000600781905550620001d4565b828054620000ce906200019f565b90600052602060002090601f016020900481019282620000f257600085556200013e565b82601f106200010d57805160ff19168380011785556200013e565b828001600101855582156200013e579182015b828111156200013d57825182559160200191906001019062000120565b5b5090506200014d919062000151565b5090565b5b808211156200016c57600081600090555060010162000152565b5090565b7f4e487b7100000000000000000000000000000000000000000000000000000000600052602260045260246000fd5b60006002820490506001821680620001b857607f821691505b602082108103620001ce57620001cd62000170565b5b50919050565b6131a980620001e46000396000f3fe608060405234801561001057600080fd5b506004361061010b5760003560e01c806370a08231116100a2578063b6a46b3b11610071578063b6a46b3b146102dc578063b88d4fde146102f8578063c87b56dd14610314578063d082e38114610344578063e985e9c5146103625761010b565b806370a082311461024257806371aee1931461027257806395d89b41146102a2578063a22cb465146102c05761010b565b806323b872dd116100de57806323b872dd146101aa57806330d871c6146101c657806342842e0e146101f65780636352211e146102125761010b565b806301ffc9a71461011057806306fdde0314610140578063081812fc1461015e578063095ea7b31461018e575b600080fd5b61012a60048036038101906101259190611cbb565b610392565b6040516101379190611d03565b60405180910390f35b610148610474565b6040516101559190611db7565b60405180910390f35b61017860048036038101906101739190611e0f565b610506565b6040516101859190611e7d565b60405180910390f35b6101a860048036038101906101a39190611ec4565b61058b565b005b6101c460048036038101906101bf9190611f04565b6106a2565b005b6101e060048036038101906101db919061208c565b610702565b6040516101ed9190611db7565b60405180910390f35b610210600480360381019061020b9190611f04565b61079b565b005b61022c60048036038101906102279190611e0f565b6107bb565b6040516102399190611e7d565b60405180910390f35b61025c600480360381019061025791906120d5565b61086c565b6040516102699190612111565b60405180910390f35b61028c6004803603810190610287919061208c565b610923565b6040516102999190611db7565b60405180910390f35b6102aa610979565b6040516102b79190611db7565b60405180910390f35b6102da60048036038101906102d59190612158565b610a0b565b005b6102f660048036038101906102f1919061208c565b610a21565b005b610312600480360381019061030d9190612239565b610aac565b005b61032e60048036038101906103299190611e0f565b610b0e565b60405161033b9190611db7565b60405180910390f35b61034c610c5f565b6040516103599190612111565b60405180910390f35b61037c600480360381019061037791906122bc565b610c65565b6040516103899190611d03565b60405180910390f35b60007f80ac58cd000000000000000000000000000000000000000000000000000000007bffffffffffffffffffffffffffffffffffffffffffffffffffffffff1916827bffffffffffffffffffffffffffffffffffffffffffffffffffffffff1916148061045d57507f5b5e139f000000000000000000000000000000000000000000000000000000007bffffffffffffffffffffffffffffffffffffffffffffffffffffffff1916827bffffffffffffffffffffffffffffffffffffffffffffffffffffffff1916145b8061046d575061046c82610cf9565b5b9050919050565b6060600080546104839061232b565b80601f01602080910402602001604051908101604052809291908181526020018280546104af9061232b565b80156104fc5780601f106104d1576101008083540402835291602001916104fc565b820191906000526020600020905b8154815290600101906020018083116104df57829003601f168201915b5050505050905090565b600061051182610d63565b610550576040517f08c379a0000000000000000000000000000000000000000000000000000000008152600401610547906123ce565b60405180910390fd5b6004600083815260200190815260200160002060009054906101000a900473ffffffffffffffffffffffffffffffffffffffff169050919050565b6000610596826107bb565b90508073ffffffffffffffffffffffffffffffffffffffff168373ffffffffffffffffffffffffffffffffffffffff1603610606576040517f08c379a00000000000000000000000000000000000000000000000000000000081526004016105fd90612460565b60405180910390fd5b8073ffffffffffffffffffffffffffffffffffffffff16610625610dcf565b73ffffffffffffffffffffffffffffffffffffffff16148061065457506106538161064e610dcf565b610c65565b5b610693576040517f08c379a000000000000000000000000000000000000000000000000000000000815260040161068a906124f2565b60405180910390fd5b61069d8383610dd7565b505050565b6106b36106ad610dcf565b82610e90565b6106f2576040517f08c379a00000000000000000000000000000000000000000000000000000000081526004016106e990612584565b60405180910390fd5b6106fd838383610f6e565b505050565b606060006040518060400160405280601a81526020017f646174613a696d6167652f7376672b786d6c3b6261736536342c000000000000815250905060006107688460405160200161075491906125e0565b6040516020818303038152906040526111d4565b90506000828260405160200161077f9291906125f7565b6040516020818303038152906040529050809350505050919050565b6107b683838360405180602001604052806000815250610aac565b505050565b6000806002600084815260200190815260200160002060009054906101000a900473ffffffffffffffffffffffffffffffffffffffff169050600073ffffffffffffffffffffffffffffffffffffffff168173ffffffffffffffffffffffffffffffffffffffff1603610863576040517f08c379a000000000000000000000000000000000000000000000000000000000815260040161085a9061268d565b60405180910390fd5b80915050919050565b60008073ffffffffffffffffffffffffffffffffffffffff168273ffffffffffffffffffffffffffffffffffffffff16036108dc576040517f08c379a00000000000000000000000000000000000000000000000000000000081526004016108d39061271f565b60405180910390fd5b600360008373ffffffffffffffffffffffffffffffffffffffff1673ffffffffffffffffffffffffffffffffffffffff168152602001908152602001600020549050919050565b6060600061094f8360405160200161093b9190612849565b6040516020818303038152906040526111d4565b60405160200161095f91906128cd565b604051602081830303815290604052905080915050919050565b6060600180546109889061232b565b80601f01602080910402602001604051908101604052809291908181526020018280546109b49061232b565b8015610a015780601f106109d657610100808354040283529160200191610a01565b820191906000526020600020905b8154815290600101906020018083116109e457829003601f168201915b5050505050905090565b610a1d610a16610dcf565b838361134c565b5050565b6000610a2c82610702565b90506000610a3982610923565b90506007547ff5acc616aa8ecd00e5d76674d7812f9c3c3571d662c9fba4499deefa6d0be12d82604051610a6d9190611db7565b60405180910390a2610a81336007546114b8565b610a8d600754826114d6565b600160076000828254610aa09190612922565b92505081905550505050565b610abd610ab7610dcf565b83610e90565b610afc576040517f08c379a0000000000000000000000000000000000000000000000000000000008152600401610af390612584565b60405180910390fd5b610b088484848461154a565b50505050565b6060610b1982610d63565b610b58576040517f08c379a0000000000000000000000000000000000000000000000000000000008152600401610b4f906129ea565b60405180910390fd5b6000600660008481526020019081526020016000208054610b789061232b565b80601f0160208091040260200160405190810160405280929190818152602001828054610ba49061232b565b8015610bf15780601f10610bc657610100808354040283529160200191610bf1565b820191906000526020600020905b815481529060010190602001808311610bd457829003601f168201915b505050505090506000610c026115a6565b90506000815103610c17578192505050610c5a565b600082511115610c4c578082604051602001610c349291906125f7565b60405160208183030381529060405292505050610c5a565b610c55846115bd565b925050505b919050565b60075481565b6000600560008473ffffffffffffffffffffffffffffffffffffffff1673ffffffffffffffffffffffffffffffffffffffff16815260200190815260200160002060008373ffffffffffffffffffffffffffffffffffffffff1673ffffffffffffffffffffffffffffffffffffffff16815260200190815260200160002060009054906101000a900460ff16905092915050565b60007f01ffc9a7000000000000000000000000000000000000000000000000000000007bffffffffffffffffffffffffffffffffffffffffffffffffffffffff1916827bffffffffffffffffffffffffffffffffffffffffffffffffffffffff1916149050919050565b60008073ffffffffffffffffffffffffffffffffffffffff166002600084815260200190815260200160002060009054906101000a900473ffffffffffffffffffffffffffffffffffffffff1673ffffffffffffffffffffffffffffffffffffffff1614159050919050565b600033905090565b816004600083815260200190815260200160002060006101000a81548173ffffffffffffffffffffffffffffffffffffffff021916908373ffffffffffffffffffffffffffffffffffffffff160217905550808273ffffffffffffffffffffffffffffffffffffffff16610e4a836107bb565b73ffffffffffffffffffffffffffffffffffffffff167f8c5be1e5ebec7d5bd14f71427d1e84f3dd0314c0f7b2291e5b200ac8c7c3b92560405160405180910390a45050565b6000610e9b82610d63565b610eda576040517f08c379a0000000000000000000000000000000000000000000000000000000008152600401610ed190612a7c565b60405180910390fd5b6000610ee5836107bb565b90508073ffffffffffffffffffffffffffffffffffffffff168473ffffffffffffffffffffffffffffffffffffffff161480610f5457508373ffffffffffffffffffffffffffffffffffffffff16610f3c84610506565b73ffffffffffffffffffffffffffffffffffffffff16145b80610f655750610f648185610c65565b5b91505092915050565b8273ffffffffffffffffffffffffffffffffffffffff16610f8e826107bb565b73ffffffffffffffffffffffffffffffffffffffff1614610fe4576040517f08c379a0000000000000000000000000000000000000000000000000000000008152600401610fdb90612b0e565b60405180910390fd5b600073ffffffffffffffffffffffffffffffffffffffff168273ffffffffffffffffffffffffffffffffffffffff1603611053576040517f08c379a000000000000000000000000000000000000000000000000000000000815260040161104a90612ba0565b60405180910390fd5b61105e838383611664565b611069600082610dd7565b6001600360008573ffffffffffffffffffffffffffffffffffffffff1673ffffffffffffffffffffffffffffffffffffffff16815260200190815260200160002060008282546110b99190612bc0565b925050819055506001600360008473ffffffffffffffffffffffffffffffffffffffff1673ffffffffffffffffffffffffffffffffffffffff16815260200190815260200160002060008282546111109190612922565b92505081905550816002600083815260200190815260200160002060006101000a81548173ffffffffffffffffffffffffffffffffffffffff021916908373ffffffffffffffffffffffffffffffffffffffff160217905550808273ffffffffffffffffffffffffffffffffffffffff168473ffffffffffffffffffffffffffffffffffffffff167fddf252ad1be2c89b69c2b068fc378daa952ba7f163c4a11628f55a4df523b3ef60405160405180910390a46111cf838383611669565b505050565b606060008251036111f657604051806020016040528060008152509050611347565b600060405180606001604052806040815260200161313460409139905060006003600285516112259190612922565b61122f9190612c23565b600461123b9190612c54565b9050600060208261124c9190612922565b67ffffffffffffffff81111561126557611264611f61565b5b6040519080825280601f01601f1916602001820160405280156112975781602001600182028036833780820191505090505b509050818152600183018586518101602084015b81831015611306576003830192508251603f8160121c168501518253600182019150603f81600c1c168501518253600182019150603f8160061c168501518253600182019150603f81168501518253600182019150506112ab565b60038951066001811461132057600281146113305761133b565b613d3d60f01b600283035261133b565b603d60f81b60018303525b50505050508093505050505b919050565b8173ffffffffffffffffffffffffffffffffffffffff168373ffffffffffffffffffffffffffffffffffffffff16036113ba576040517f08c379a00000000000000000000000000000000000000000000000000000000081526004016113b190612cfa565b60405180910390fd5b80600560008573ffffffffffffffffffffffffffffffffffffffff1673ffffffffffffffffffffffffffffffffffffffff16815260200190815260200160002060008473ffffffffffffffffffffffffffffffffffffffff1673ffffffffffffffffffffffffffffffffffffffff16815260200190815260200160002060006101000a81548160ff0219169083151502179055508173ffffffffffffffffffffffffffffffffffffffff168373ffffffffffffffffffffffffffffffffffffffff167f17307eab39ab6107e8899845ad3d59bd9653f200f220920489ca2b5937696c31836040516114ab9190611d03565b60405180910390a3505050565b6114d282826040518060200160405280600081525061166e565b5050565b6114df82610d63565b61151e576040517f08c379a000000000000000000000000000000000000000000000000000000000815260040161151590612d8c565b60405180910390fd5b80600660008481526020019081526020016000209080519060200190611545929190611bac565b505050565b611555848484610f6e565b611561848484846116c9565b6115a0576040517f08c379a000000000000000000000000000000000000000000000000000000000815260040161159790612e1e565b60405180910390fd5b50505050565b606060405180602001604052806000815250905090565b60606115c882610d63565b611607576040517f08c379a00000000000000000000000000000000000000000000000000000000081526004016115fe90612eb0565b60405180910390fd5b60006116116115a6565b90506000815111611631576040518060200160405280600081525061165c565b8061163b84611850565b60405160200161164c9291906125f7565b6040516020818303038152906040525b915050919050565b505050565b505050565b61167883836119b0565b61168560008484846116c9565b6116c4576040517f08c379a00000000000000000000000000000000000000000000000000000000081526004016116bb90612e1e565b60405180910390fd5b505050565b60006116ea8473ffffffffffffffffffffffffffffffffffffffff16611b89565b15611843578373ffffffffffffffffffffffffffffffffffffffff1663150b7a02611713610dcf565b8786866040518563ffffffff1660e01b81526004016117359493929190612f25565b6020604051808303816000875af192505050801561177157506040513d601f19601f8201168201806040525081019061176e9190612f86565b60015b6117f3573d80600081146117a1576040519150601f19603f3d011682016040523d82523d6000602084013e6117a6565b606091505b5060008151036117eb576040517f08c379a00000000000000000000000000000000000000000000000000000000081526004016117e290612e1e565b60405180910390fd5b805181602001fd5b63150b7a0260e01b7bffffffffffffffffffffffffffffffffffffffffffffffffffffffff1916817bffffffffffffffffffffffffffffffffffffffffffffffffffffffff191614915050611848565b600190505b949350505050565b606060008203611897576040518060400160405280600181526020017f300000000000000000000000000000000000000000000000000000000000000081525090506119ab565b600082905060005b600082146118c95780806118b290612fb3565b915050600a826118c29190612c23565b915061189f565b60008167ffffffffffffffff8111156118e5576118e4611f61565b5b6040519080825280601f01601f1916602001820160405280156119175781602001600182028036833780820191505090505b5090505b600085146119a4576001826119309190612bc0565b9150600a8561193f9190612ffb565b603061194b9190612922565b60f81b8183815181106119615761196061302c565b5b60200101907effffffffffffffffffffffffffffffffffffffffffffffffffffffffffffff1916908160001a905350600a8561199d9190612c23565b945061191b565b8093505050505b919050565b600073ffffffffffffffffffffffffffffffffffffffff168273ffffffffffffffffffffffffffffffffffffffff1603611a1f576040517f08c379a0000000000000000000000000000000000000000000000000000000008152600401611a16906130a7565b60405180910390fd5b611a2881610d63565b15611a68576040517f08c379a0000000000000000000000000000000000000000000000000000000008152600401611a5f90613113565b60405180910390fd5b611a7460008383611664565b6001600360008473ffffffffffffffffffffffffffffffffffffffff1673ffffffffffffffffffffffffffffffffffffffff1681526020019081526020016000206000828254611ac49190612922565b92505081905550816002600083815260200190815260200160002060006101000a81548173ffffffffffffffffffffffffffffffffffffffff021916908373ffffffffffffffffffffffffffffffffffffffff160217905550808273ffffffffffffffffffffffffffffffffffffffff16600073ffffffffffffffffffffffffffffffffffffffff167fddf252ad1be2c89b69c2b068fc378daa952ba7f163c4a11628f55a4df523b3ef60405160405180910390a4611b8560008383611669565b5050565b6000808273ffffffffffffffffffffffffffffffffffffffff163b119050919050565b828054611bb89061232b565b90600052602060002090601f016020900481019282611bda5760008555611c21565b82601f10611bf357805160ff1916838001178555611c21565b82800160010185558215611c21579182015b82811115611c20578251825591602001919060010190611c05565b5b509050611c2e9190611c32565b5090565b5b80821115611c4b576000816000905550600101611c33565b5090565b6000604051905090565b600080fd5b600080fd5b60007fffffffff0000000000000000000000000000000000000000000000000000000082169050919050565b611c9881611c63565b8114611ca357600080fd5b50565b600081359050611cb581611c8f565b92915050565b600060208284031215611cd157611cd0611c59565b5b6000611cdf84828501611ca6565b91505092915050565b60008115159050919050565b611cfd81611ce8565b82525050565b6000602082019050611d186000830184611cf4565b92915050565b600081519050919050565b600082825260208201905092915050565b60005b83811015611d58578082015181840152602081019050611d3d565b83811115611d67576000848401525b50505050565b6000601f19601f8301169050919050565b6000611d8982611d1e565b611d938185611d29565b9350611da3818560208601611d3a565b611dac81611d6d565b840191505092915050565b60006020820190508181036000830152611dd18184611d7e565b905092915050565b6000819050919050565b611dec81611dd9565b8114611df757600080fd5b50565b600081359050611e0981611de3565b92915050565b600060208284031215611e2557611e24611c59565b5b6000611e3384828501611dfa565b91505092915050565b600073ffffffffffffffffffffffffffffffffffffffff82169050919050565b6000611e6782611e3c565b9050919050565b611e7781611e5c565b82525050565b6000602082019050611e926000830184611e6e565b92915050565b611ea181611e5c565b8114611eac57600080fd5b50565b600081359050611ebe81611e98565b92915050565b60008060408385031215611edb57611eda611c59565b5b6000611ee985828601611eaf565b9250506020611efa85828601611dfa565b9150509250929050565b600080600060608486031215611f1d57611f1c611c59565b5b6000611f2b86828701611eaf565b9350506020611f3c86828701611eaf565b9250506040611f4d86828701611dfa565b9150509250925092565b600080fd5b600080fd5b7f4e487b7100000000000000000000000000000000000000000000000000000000600052604160045260246000fd5b611f9982611d6d565b810181811067ffffffffffffffff82111715611fb857611fb7611f61565b5b80604052505050565b6000611fcb611c4f565b9050611fd78282611f90565b919050565b600067ffffffffffffffff821115611ff757611ff6611f61565b5b61200082611d6d565b9050602081019050919050565b82818337600083830152505050565b600061202f61202a84611fdc565b611fc1565b90508281526020810184848401111561204b5761204a611f5c565b5b61205684828561200d565b509392505050565b600082601f83011261207357612072611f57565b5b813561208384826020860161201c565b91505092915050565b6000602082840312156120a2576120a1611c59565b5b600082013567ffffffffffffffff8111156120c0576120bf611c5e565b5b6120cc8482850161205e565b91505092915050565b6000602082840312156120eb576120ea611c59565b5b60006120f984828501611eaf565b91505092915050565b61210b81611dd9565b82525050565b60006020820190506121266000830184612102565b92915050565b61213581611ce8565b811461214057600080fd5b50565b6000813590506121528161212c565b92915050565b6000806040838503121561216f5761216e611c59565b5b600061217d85828601611eaf565b925050602061218e85828601612143565b9150509250929050565b600067ffffffffffffffff8211156121b3576121b2611f61565b5b6121bc82611d6d565b9050602081019050919050565b60006121dc6121d784612198565b611fc1565b9050828152602081018484840111156121f8576121f7611f5c565b5b61220384828561200d565b509392505050565b600082601f8301126122205761221f611f57565b5b81356122308482602086016121c9565b91505092915050565b6000806000806080858703121561225357612252611c59565b5b600061226187828801611eaf565b945050602061227287828801611eaf565b935050604061228387828801611dfa565b925050606085013567ffffffffffffffff8111156122a4576122a3611c5e565b5b6122b08782880161220b565b91505092959194509250565b600080604083850312156122d3576122d2611c59565b5b60006122e185828601611eaf565b92505060206122f285828601611eaf565b9150509250929050565b7f4e487b7100000000000000000000000000000000000000000000000000000000600052602260045260246000fd5b6000600282049050600182168061234357607f821691505b602082108103612356576123556122fc565b5b50919050565b7f4552433732313a20617070726f76656420717565727920666f72206e6f6e657860008201527f697374656e7420746f6b656e0000000000000000000000000000000000000000602082015250565b60006123b8602c83611d29565b91506123c38261235c565b604082019050919050565b600060208201905081810360008301526123e7816123ab565b9050919050565b7f4552433732313a20617070726f76616c20746f2063757272656e74206f776e6560008201527f7200000000000000000000000000000000000000000000000000000000000000602082015250565b600061244a602183611d29565b9150612455826123ee565b604082019050919050565b600060208201905081810360008301526124798161243d565b9050919050565b7f4552433732313a20617070726f76652063616c6c6572206973206e6f74206f7760008201527f6e6572206e6f7220617070726f76656420666f7220616c6c0000000000000000602082015250565b60006124dc603883611d29565b91506124e782612480565b604082019050919050565b6000602082019050818103600083015261250b816124cf565b9050919050565b7f4552433732313a207472616e736665722063616c6c6572206973206e6f74206f60008201527f776e6572206e6f7220617070726f766564000000000000000000000000000000602082015250565b600061256e603183611d29565b915061257982612512565b604082019050919050565b6000602082019050818103600083015261259d81612561565b9050919050565b600081905092915050565b60006125ba82611d1e565b6125c481856125a4565b93506125d4818560208601611d3a565b80840191505092915050565b60006125ec82846125af565b915081905092915050565b600061260382856125af565b915061260f82846125af565b91508190509392505050565b7f4552433732313a206f776e657220717565727920666f72206e6f6e657869737460008201527f656e7420746f6b656e0000000000000000000000000000000000000000000000602082015250565b6000612677602983611d29565b91506126828261261b565b604082019050919050565b600060208201905081810360008301526126a68161266a565b9050919050565b7f4552433732313a2062616c616e636520717565727920666f7220746865207a6560008201527f726f206164647265737300000000000000000000000000000000000000000000602082015250565b6000612709602a83611d29565b9150612714826126ad565b604082019050919050565b60006020820190508181036000830152612738816126fc565b9050919050565b7f7b226e616d65223a22535647204e4654222c0000000000000000000000000000815250565b7f226465736372697074696f6e223a22416e204e4654206261736564205356472160008201527f222c000000000000000000000000000000000000000000000000000000000000602082015250565b60006127c16022836125a4565b91506127cc82612765565b602282019050919050565b7f2261747472696275746573223a22222c00000000000000000000000000000000815250565b7f22696d616765223a220000000000000000000000000000000000000000000000815250565b7f227d000000000000000000000000000000000000000000000000000000000000815250565b60006128548261273f565b601282019150612863826127b4565b915061286e826127d7565b60108201915061287d826127fd565b60098201915061288d82846125af565b915061289882612823565b60028201915081905092915050565b7f646174613a6170706c69636174696f6e2f6a736f6e3b6261736536342c000000815250565b60006128d8826128a7565b601d820191506128e882846125af565b915081905092915050565b7f4e487b7100000000000000000000000000000000000000000000000000000000600052601160045260246000fd5b600061292d82611dd9565b915061293883611dd9565b9250827fffffffffffffffffffffffffffffffffffffffffffffffffffffffffffffffff0382111561296d5761296c6128f3565b5b828201905092915050565b7f45524337323155524953746f726167653a2055524920717565727920666f722060008201527f6e6f6e6578697374656e7420746f6b656e000000000000000000000000000000602082015250565b60006129d4603183611d29565b91506129df82612978565b604082019050919050565b60006020820190508181036000830152612a03816129c7565b9050919050565b7f4552433732313a206f70657261746f7220717565727920666f72206e6f6e657860008201527f697374656e7420746f6b656e0000000000000000000000000000000000000000602082015250565b6000612a66602c83611d29565b9150612a7182612a0a565b604082019050919050565b60006020820190508181036000830152612a9581612a59565b9050919050565b7f4552433732313a207472616e736665722066726f6d20696e636f72726563742060008201527f6f776e6572000000000000000000000000000000000000000000000000000000602082015250565b6000612af8602583611d29565b9150612b0382612a9c565b604082019050919050565b60006020820190508181036000830152612b2781612aeb565b9050919050565b7f4552433732313a207472616e7366657220746f20746865207a65726f2061646460008201527f7265737300000000000000000000000000000000000000000000000000000000602082015250565b6000612b8a602483611d29565b9150612b9582612b2e565b604082019050919050565b60006020820190508181036000830152612bb981612b7d565b9050919050565b6000612bcb82611dd9565b9150612bd683611dd9565b925082821015612be957612be86128f3565b5b828203905092915050565b7f4e487b7100000000000000000000000000000000000000000000000000000000600052601260045260246000fd5b6000612c2e82611dd9565b9150612c3983611dd9565b925082612c4957612c48612bf4565b5b828204905092915050565b6000612c5f82611dd9565b9150612c6a83611dd9565b9250817fffffffffffffffffffffffffffffffffffffffffffffffffffffffffffffffff0483118215151615612ca357612ca26128f3565b5b828202905092915050565b7f4552433732313a20617070726f766520746f2063616c6c657200000000000000600082015250565b6000612ce4601983611d29565b9150612cef82612cae565b602082019050919050565b60006020820190508181036000830152612d1381612cd7565b9050919050565b7f45524337323155524953746f726167653a2055524920736574206f66206e6f6e60008201527f6578697374656e7420746f6b656e000000000000000000000000000000000000602082015250565b6000612d76602e83611d29565b9150612d8182612d1a565b604082019050919050565b60006020820190508181036000830152612da581612d69565b9050919050565b7f4552433732313a207472616e7366657220746f206e6f6e20455243373231526560008201527f63656976657220696d706c656d656e7465720000000000000000000000000000602082015250565b6000612e08603283611d29565b9150612e1382612dac565b604082019050919050565b60006020820190508181036000830152612e3781612dfb565b9050919050565b7f4552433732314d657461646174613a2055524920717565727920666f72206e6f60008201527f6e6578697374656e7420746f6b656e0000000000000000000000000000000000602082015250565b6000612e9a602f83611d29565b9150612ea582612e3e565b604082019050919050565b60006020820190508181036000830152612ec981612e8d565b9050919050565b600081519050919050565b600082825260208201905092915050565b6000612ef782612ed0565b612f018185612edb565b9350612f11818560208601611d3a565b612f1a81611d6d565b840191505092915050565b6000608082019050612f3a6000830187611e6e565b612f476020830186611e6e565b612f546040830185612102565b8181036060830152612f668184612eec565b905095945050505050565b600081519050612f8081611c8f565b92915050565b600060208284031215612f9c57612f9b611c59565b5b6000612faa84828501612f71565b91505092915050565b6000612fbe82611dd9565b91507fffffffffffffffffffffffffffffffffffffffffffffffffffffffffffffffff8203612ff057612fef6128f3565b5b600182019050919050565b600061300682611dd9565b915061301183611dd9565b92508261302157613020612bf4565b5b828206905092915050565b7f4e487b7100000000000000000000000000000000000000000000000000000000600052603260045260246000fd5b7f4552433732313a206d696e7420746f20746865207a65726f2061646472657373600082015250565b6000613091602083611d29565b915061309c8261305b565b602082019050919050565b600060208201905081810360008301526130c081613084565b9050919050565b7f4552433732313a20746f6b656e20616c7265616479206d696e74656400000000600082015250565b60006130fd601c83611d29565b9150613108826130c7565b602082019050919050565b6000602082019050818103600083015261312c816130f0565b905091905056fe4142434445464748494a4b4c4d4e4f505152535455565758595a6162636465666768696a6b6c6d6e6f707172737475767778797a303132333435363738392b2fa2646970667358221220d68772e49cfc0d7bdcca9cf9558c74017d0f9f7878db2edc55d6a24c9e5c3c3a64736f6c634300080d0033",
  "devdoc": {
    "kind": "dev",
    "methods": {
      "approve(address,uint256)": {
        "details": "See {IERC721-approve}."
      },
      "balanceOf(address)": {
        "details": "See {IERC721-balanceOf}."
      },
      "getApproved(uint256)": {
        "details": "See {IERC721-getApproved}."
      },
      "isApprovedForAll(address,address)": {
        "details": "See {IERC721-isApprovedForAll}."
      },
      "name()": {
        "details": "See {IERC721Metadata-name}."
      },
      "ownerOf(uint256)": {
        "details": "See {IERC721-ownerOf}."
      },
      "safeTransferFrom(address,address,uint256)": {
        "details": "See {IERC721-safeTransferFrom}."
      },
      "safeTransferFrom(address,address,uint256,bytes)": {
        "details": "See {IERC721-safeTransferFrom}."
      },
      "setApprovalForAll(address,bool)": {
        "details": "See {IERC721-setApprovalForAll}."
      },
      "supportsInterface(bytes4)": {
        "details": "See {IERC165-supportsInterface}."
      },
      "symbol()": {
        "details": "See {IERC721Metadata-symbol}."
      },
      "tokenURI(uint256)": {
        "details": "See {IERC721Metadata-tokenURI}."
      },
      "transferFrom(address,address,uint256)": {
        "details": "See {IERC721-transferFrom}."
      }
    },
    "version": 1
  },
  "userdoc": {
    "kind": "user",
    "methods": {},
    "version": 1
  },
  "storageLayout": {
    "storage": [
      {
        "astId": 25,
        "contract": "contracts/SVGNFT.sol:SVGNFT",
        "label": "_name",
        "offset": 0,
        "slot": "0",
        "type": "t_string_storage"
      },
      {
        "astId": 27,
        "contract": "contracts/SVGNFT.sol:SVGNFT",
        "label": "_symbol",
        "offset": 0,
        "slot": "1",
        "type": "t_string_storage"
      },
      {
        "astId": 31,
        "contract": "contracts/SVGNFT.sol:SVGNFT",
        "label": "_owners",
        "offset": 0,
        "slot": "2",
        "type": "t_mapping(t_uint256,t_address)"
      },
      {
        "astId": 35,
        "contract": "contracts/SVGNFT.sol:SVGNFT",
        "label": "_balances",
        "offset": 0,
        "slot": "3",
        "type": "t_mapping(t_address,t_uint256)"
      },
      {
        "astId": 39,
        "contract": "contracts/SVGNFT.sol:SVGNFT",
        "label": "_tokenApprovals",
        "offset": 0,
        "slot": "4",
        "type": "t_mapping(t_uint256,t_address)"
      },
      {
        "astId": 45,
        "contract": "contracts/SVGNFT.sol:SVGNFT",
        "label": "_operatorApprovals",
        "offset": 0,
        "slot": "5",
        "type": "t_mapping(t_address,t_mapping(t_address,t_bool))"
      },
      {
        "astId": 1012,
        "contract": "contracts/SVGNFT.sol:SVGNFT",
        "label": "_tokenURIs",
        "offset": 0,
        "slot": "6",
        "type": "t_mapping(t_uint256,t_string_storage)"
      },
      {
        "astId": 1833,
        "contract": "contracts/SVGNFT.sol:SVGNFT",
        "label": "tokenCounter",
        "offset": 0,
        "slot": "7",
        "type": "t_uint256"
      }
    ],
    "types": {
      "t_address": {
        "encoding": "inplace",
        "label": "address",
        "numberOfBytes": "20"
      },
      "t_bool": {
        "encoding": "inplace",
        "label": "bool",
        "numberOfBytes": "1"
      },
      "t_mapping(t_address,t_bool)": {
        "encoding": "mapping",
        "key": "t_address",
        "label": "mapping(address => bool)",
        "numberOfBytes": "32",
        "value": "t_bool"
      },
      "t_mapping(t_address,t_mapping(t_address,t_bool))": {
        "encoding": "mapping",
        "key": "t_address",
        "label": "mapping(address => mapping(address => bool))",
        "numberOfBytes": "32",
        "value": "t_mapping(t_address,t_bool)"
      },
      "t_mapping(t_address,t_uint256)": {
        "encoding": "mapping",
        "key": "t_address",
        "label": "mapping(address => uint256)",
        "numberOfBytes": "32",
        "value": "t_uint256"
      },
      "t_mapping(t_uint256,t_address)": {
        "encoding": "mapping",
        "key": "t_uint256",
        "label": "mapping(uint256 => address)",
        "numberOfBytes": "32",
        "value": "t_address"
      },
      "t_mapping(t_uint256,t_string_storage)": {
        "encoding": "mapping",
        "key": "t_uint256",
        "label": "mapping(uint256 => string)",
        "numberOfBytes": "32",
        "value": "t_string_storage"
      },
      "t_string_storage": {
        "encoding": "bytes",
        "label": "string",
        "numberOfBytes": "32"
      },
      "t_uint256": {
        "encoding": "inplace",
        "label": "uint256",
        "numberOfBytes": "32"
      }
    }
  }
}